{
  "contractName": "Greeter",
  "abi": [
    {
      "inputs": [],
      "payable": false,
      "stateMutability": "nonpayable",
      "type": "constructor"
    },
    {
      "payable": false,
      "stateMutability": "nonpayable",
      "type": "fallback"
    },
    {
      "constant": true,
      "inputs": [],
      "name": "Greet",
      "outputs": [
        {
          "name": "",
          "type": "string"
        }
      ],
      "payable": false,
      "stateMutability": "view",
      "type": "function"
    },
    {
      "constant": false,
      "inputs": [
        {
          "name": "x",
          "type": "string"
        }
      ],
      "name": "myGreet",
      "outputs": [
        {
          "name": "",
          "type": "string"
        }
      ],
      "payable": false,
      "stateMutability": "nonpayable",
      "type": "function"
    },
    {
      "constant": false,
      "inputs": [
        {
          "name": "n",
          "type": "uint256"
        }
      ],
      "name": "fib",
      "outputs": [
        {
          "name": "",
          "type": "uint256"
        }
      ],
      "payable": false,
      "stateMutability": "nonpayable",
      "type": "function"
    },
    {
      "constant": false,
      "inputs": [
        {
          "name": "x",
          "type": "string"
        },
        {
          "name": "y",
          "type": "string"
        }
      ],
      "name": "xor",
      "outputs": [
        {
          "name": "",
          "type": "uint256"
        }
      ],
      "payable": false,
      "stateMutability": "nonpayable",
      "type": "function"
    },
    {
      "constant": false,
      "inputs": [
        {
          "name": "x",
          "type": "uint256"
        },
        {
          "name": "y",
          "type": "uint256"
        }
      ],
      "name": "xor1",
      "outputs": [
        {
          "name": "",
          "type": "uint256"
        }
      ],
      "payable": false,
      "stateMutability": "nonpayable",
      "type": "function"
    },
    {
      "constant": false,
      "inputs": [
        {
          "name": "x",
          "type": "string"
        },
        {
          "name": "y",
          "type": "string"
        }
      ],
      "name": "concat",
      "outputs": [
        {
          "name": "",
          "type": "string"
        }
      ],
      "payable": false,
      "stateMutability": "nonpayable",
      "type": "function"
    }
  ],
  "bytecode": "0x6060604052341561000f57600080fd5b336000806101000a81548173ffffffffffffffffffffffffffffffffffffffff021916908373ffffffffffffffffffffffffffffffffffffffff1602179055506107fd8061005e6000396000f300606060405260043610610078576000357c0100000000000000000000000000000000000000000000000000000000900463ffffffff1680633605a96314610088578063573d76e71461015e5780635ae5d4aa1461021257806389c19ddb146102a0578063a3c5754c146103b9578063c6c2ea17146103f9575b341561008357600080fd5b600080fd5b341561009357600080fd5b6100e3600480803590602001908201803590602001908080601f01602080910402602001604051908101604052809392919081815260200183838082843782019150505050505091905050610430565b6040518080602001828103825283818151815260200191508051906020019080838360005b83811015610123578082015181840152602081019050610108565b50505050905090810190601f1680156101505780820380516001836020036101000a031916815260200191505b509250505060405180910390f35b341561016957600080fd5b6101fc600480803590602001908201803590602001908080601f0160208091040260200160405190810160405280939291908181526020018383808284378201915050505050509190803590602001908201803590602001908080601f01602080910402602001604051908101604052809392919081815260200183838082843782019150505050505091905050610440565b6040518082815260200191505060405180910390f35b341561021d57600080fd5b61022561052a565b6040518080602001828103825283818151815260200191508051906020019080838360005b8381101561026557808201518184015260208101905061024a565b50505050905090810190601f1680156102925780820380516001836020036101000a031916815260200191505b509250505060405180910390f35b34156102ab57600080fd5b61033e600480803590602001908201803590602001908080601f0160208091040260200160405190810160405280939291908181526020018383808284378201915050505050509190803590602001908201803590602001908080601f0160208091040260200160405190810160405280939291908181526020018383808284378201915050505050509190505061056d565b6040518080602001828103825283818151815260200191508051906020019080838360005b8381101561037e578082015181840152602081019050610363565b50505050905090810190601f1680156103ab5780820380516001836020036101000a031916815260200191505b509250505060405180910390f35b34156103c457600080fd5b6103e3600480803590602001909190803590602001909190505061074d565b6040518082815260200191505060405180910390f35b341561040457600080fd5b61041a600480803590602001909190505061076b565b6040518082815260200191505060405180910390f35b6104386107a9565b819050919050565b6000816040518082805190602001908083835b6020831015156104785780518252602082019150602081019050602083039250610453565b6001836020036101000a038019825116818451168082178552505050505050905001915050604051809103902060001916836040518082805190602001908083835b6020831015156104df57805182526020820191506020810190506020830392506104ba565b6001836020036101000a038019825116818451168082178552505050505050905001915050604051809103902060001916141561051f5760009050610524565b600190505b92915050565b6105326107a9565b6040805190810160405280600d81526020017f68656c6c6f2c20576f726c642100000000000000000000000000000000000000815250905090565b6105756107a9565b61057d6107bd565b6105856107bd565b61058d6107a9565b6105956107bd565b60008088955087945084518651016040518059106105b05750595b9080825280601f01601f1916602001820160405250935083925060009150600090505b85518110156106865785818151811015156105ea57fe5b9060200101517f010000000000000000000000000000000000000000000000000000000000000090047f010000000000000000000000000000000000000000000000000000000000000002838380600101945081518110151561064957fe5b9060200101907effffffffffffffffffffffffffffffffffffffffffffffffffffffffffffff1916908160001a90535080806001019150506105d3565b600090505b845181101561073e5784818151811015156106a257fe5b9060200101517f010000000000000000000000000000000000000000000000000000000000000090047f010000000000000000000000000000000000000000000000000000000000000002838380600101945081518110151561070157fe5b9060200101907effffffffffffffffffffffffffffffffffffffffffffffffffffffffffffff1916908160001a905350808060010191505061068b565b82965050505050505092915050565b6000818314156107605760009050610765565b600190505b92915050565b600080600080600080935060019250600091505b8582806001019350101561079d57839050829350828101925061077f565b83945050505050919050565b602060405190810160405280600081525090565b6020604051908101604052806000815250905600a165627a7a7230582085e51477618f7dda72531d976279997259940f6cea7eebeb682e4d2dca82c1bb0029",
  "source": "pragma solidity ^0.4.0;\ncontract Greeter {\n    \n    address owner;\n    \n    function Greeter() public {\n        owner = msg.sender;\n    }\n    \n    function Greet() constant returns (string){\n        return \"hello, World!\";\n    }\n    \n    function myGreet(string x) public returns (string){\n        return x;\n    }\n    \n    function fib(uint n) public returns (uint){\n        uint a = 0;\n        uint b = 1;\n        uint i = 0;\n        while (i++ < n) {\n            uint temp = a;\n            a = b;\n            b = temp + b;\n        }\n        return a;\n    }\n    \n    function xor(string x, string y) public returns (uint){\n        if (keccak256(x) == keccak256(y)) {\n            return 0;\n        }\n        else {\n            return 1;\n        }\n    }\n    \n    function xor1(uint x, uint y) public returns (uint){\n        if (x == y) {\n            return 0;\n        }\n        else {\n            return 1;\n        }\n    }\n    \n    function concat(string x, string y) public returns (string){\n        bytes memory _x = bytes(x);\n        bytes memory _y = bytes(y);\n        string memory xy = new string(_x.length + _y.length);\n        bytes memory bxy = bytes(xy);\n        uint k = 0;\n        for (uint i = 0; i < _x.length; i++) bxy[k++] = _x[i];\n        for (i = 0; i < _y.length; i++) bxy[k++] = _y[i];\n        return string(bxy);\n    }\n    \n    function () {\n        throw;\n    }\n\n}",
  "sourcePath": "/Users/victorcheng/Downloads/blockchaindev/blockchainDev2018/Greet/contracts/Greeter.sol",
  "compiler": {
    "name": "solc",
    "version": "0.4.19+commit.c4cbbb05.Emscripten.clang"
  },
  "schemaVersion": "1.0.1",
  "updatedAt": "2018-02-15T23:12:53.723Z"
}